:1000000012C02CC02BC02AC029C028C027C026C0BF
:1000100025C024C023C0D3C021C020C01FC01EC023
:100020001DC01CC01BC011241FBECFE5D4E0DEBF25
:10003000CDBF10E0A0E6B0E0EEE0F3E002C0059036
:100040000D92AC36B107D9F720E0ACE6B0E001C0C4
:100050001D92AE36B207E1F730D157C1D1CF8091B2
:1000600060009091610082309105F1F02CF40097CE
:1000700049F0019781F0089583309105F1F00497DC
:1000800029F108952BED81E49FE0215080409040BC
:10009000E1F700C000002FE181EA97E021508040A5
:1000A0009040E1F700C000002FE986E891E0215080
:1000B00080409040E1F700C000002FE58AEE90E01C
:1000C000215080409040E1F700C000008BE792E9AA
:1000D0000197F1F700C00000089580916C00811134
:1000E00034C080916D00882381F195B381E0892728
:1000F00085BBA898B4DF80916C00811126C08091E7
:100100006D00882311F198B380E2892788BBC598D8
:10011000A6DF80916C00811118C080916D0088234A
:10012000A1F098B388E0892788BBC39898DF8091B5
:100130006C0081110AC080916D00882331F098B362
:1001400082E0892788BBC1988ACF089580916C008E
:100150008823A1F180916D00882381F198B382E01A
:10016000892788BBC1987BDF80916C00882331F19F
:1001700080916D00882311F198B388E0892788BBAE
:10018000C3986DDF80916C008823C1F080916D0071
:100190008823A1F098B380E2892788BBC5985FDFE8
:1001A00080916C00882351F080916D00882331F09C
:1001B00095B381E0892785BBA89851CF08951F92F8
:1001C0000F920FB60F9211248F939F938CB18636A6
:1001D00029F150F4803308F469C0853308F45AC01B
:1001E000843609F447C062C0833731F0853791F116
:1001F000823709F05BC01DC080916D00811156C02F
:1002000081E080936D0080916000805D8CB992B335
:1002100080E2892782BB80916C0015C090916D00AF
:10022000992309F443C010926D008CB99598AA984F
:100230003DC080916D008823C9F190916C0081E0F0
:10024000892780936C00882391F395B384E08927F4
:1002500085BB2CC080916D00882341F180916000A6
:10026000909161008430910514F4019619C084E0E6
:1002700090E016C080916D008823C1F080916000ED
:10028000909161008230910514F0019709C080E0DF
:1002900090E006C090916D00992341F090E0C097E6
:1002A0009093610080936000805D8CB99F918F91E5
:1002B0000F900FBE0F901F90189510926C00109227
:1002C0006D008D9A9298A29AAA98A09AA898BD9A21
:1002D000C598BB9AC398B99AC19886E189B988E94B
:1002E0008AB986E880BD86E68CB9789480916D00E5
:1002F000882341F080916C00882311F027DFF6CF2E
:0E030000ECDEF4CF5D9BFECFF1CFF894FFCF83
:0C030E0002000F278813E80358022C019E
:00000001FF
