:1000000012C019C018C017C016C015C014C013C044
:1000100012C011C010C09AC00EC00DC00CC00BC0E1
:100020000AC009C008C011241FBECFE5D4E0DEBF5E
:10003000CDBFD4D0E9C0E4CF98B380E2892788BB94
:1000400098B380E1892788BB98B388E0892788BB6B
:1000500098B384E0892788BB98B382E0892788BB5E
:1000600098B381E0892788BB089598B380E18927F8
:1000700088BB98B388E0892788BB089598B380E24D
:10008000892788BB98B380E1892788BB98B384E02F
:10009000892788BB98B382E0892788BB82B38058C0
:1000A00082BB089598B380E2892788BB98B380E12A
:1000B000892788BB98B388E0892788BB98B384E0F8
:1000C000892788BB82B3805882BB089598B380E1AA
:1000D000892788BB98B388E0892788BB98B381E0DB
:1000E000892788BB82B3805882BB089598B380E289
:1000F000892788BB98B388E0892788BB98B384E0B8
:10010000892788BB98B381E0892788BB82B3805850
:1001100082BB089598B380E2892788BB98B384E0B6
:10012000892788BB98B382E0892788BB98B381E090
:10013000892788BB82B3805882BB0895C598C4982C
:10014000C398C298C198C098979808951F920F922B
:100150000FB60F9211242F933F934F935F936F939A
:100160007F938F939F93AF93BF93CF93EF93FF931F
:10017000CCB1E4DF8C2F0C2E000C990B8F978330C1
:10018000910589F03CF48130910559F0029779F49A
:1001900075DF12C08430910541F0059741F4A6DF68
:1001A0000BC063DF09C07EDF07C090DF05C0C63625
:1001B00011F442DF01C0AEDFFF91EF91CF91BF910B
:1001C000AF919F918F917F916F915F914F913F91EF
:1001D0002F910F900FBE0F901F901895BD9AC59844
:1001E000BC9AC498BB9AC398BA9AC298B99AC19853
:1001F000B89AC0988F9A979886E189B980E98AB9A8
:0C02000086E880BD7894FFCFF894FFCF13
:00000001FF
